:100000000C944F010C9480010C9480010C9480019D
:100010000C9480010C9480010C9480010C9480015C
:100020000C9480010C9480010C9480010C9480014C
:100030000C9480010C9480010C9480010C9480013C
:100040000C9480010C9480010C9480010C9480012C
:100050000C94E4050C9480010C9480010C949A0596
:100060000C9480010C9480010C9480010C9480010C
:100070000C9480010C9480010C9480010C948001FC
:100080000C9480010C9480010C9480010C948001EC
:100090000C9480010C9480010C9480010C948001DC
:1000A0000C9480010C9480010C9480010C948001CC
:1000B0000C9480010C9480010C9480010C948001BC
:1000C0000C9480010C9480010C9480010C948001AC
:1000D0000C9480010C9480010C9480010C9480019C
:1000E0000C94800131023402230227022D026B029C
:1000F00038023C02420246024A02500254025802AE
:100100006B025E02620266020C9460030C94F403BC
:100110000C9446020C942D020C9427020C941205A8
:100120000C9464030C9431020C9458020C946803F0
:100130000C94C5030C944F040C943C020C9466027E
:100140000C945E020C9438020C948B090C9462029D
:100150000C9423020C946B030C9495030C94A90348
:100160000C946B020C9434020C9450020C944A02CE
:100170000C9454020C9411050C94420200002100CE
:10018000240027002A002D00300033000101000068
:10019000040107010A0100002200250028002B00AD
:1001A0002E003100340002010000050108010B019E
:1001B000000020002300260029002C002F00320020
:1001C00000010000030106010901050505050705F9
:1001D00008080808020202020A0A080804040404C3
:1001E00001010101010101010303030303030303EF
:1001F000040707070C0C0C0C0C0C0C0C020202027E
:1002000006060606060606060B0B0B0B0B0B0B0B66
:100210000102102020080810204010204080020118
:1002200002010804020101020408102040808040FD
:1002300020100804020180040201804020100804FC
:10024000020108040201010204081020408001029A
:1002500004081020408000000A0B02090C0D0E0853
:10026000070304010000000000000000000000007F
:10027000000000000000000000000000000000007E
:10028000000012111000000000000000000000003B
:100290000000000000000000000000008B09112495
:1002A0001FBECFEFD1E2DEBFCDBF00E00CBF23E029
:1002B000A6E8B2E001C01D92A732B207E1F712E052
:1002C000A0E0B2E0ECE9F9E100E00BBF02C007906A
:1002D0000D92A638B107D9F711E0CFE4D1E000E0E4
:1002E00006C021970109802FFE010E94A90ACE3481
:1002F000D10780E00807A9F70E94D0060C94CC0C27
:100300000C94000096E0899FD0011124A356BD4FA4
:1003100090967C936E935F9791E091969C939197C2
:1003200090910903E0910A03F0910B03992339F0AE
:10033000309751F0811108C08091B90204C0309704
:1003400019F05C968C9119940895CF92DF92EF92F8
:10035000FF920F931F9396E0899FF0011124E356BB
:10036000FD4F11A2278D30A12130310539F158F010
:100370002230310509F447C02330310509F04FC060
:1003800060E070E044C0662309F449C061E070E0B9
:100390000E9482012FB7F8948091990290919A025D
:1003A000A0919B02B0919C022FBF8093F502909385
:1003B000F602A093F702B093F80231C09FB7F89409
:1003C000C0909902D0909A02E0909B02F0909C021B
:1003D0009FBF0091F5021091F6022091F702309133
:1003E000F802C01AD10AE20AF30A00910703109139
:1003F000080320E030E00C151D052E053F0518F41C
:1004000062E070E004C061110AC063E070E01F9117
:100410000F91FF90EF90DF90CF900C9482011F918D
:100420000F91FF90EF90DF90CF90089590E0FC0146
:100430003197E231F10508F04EC08827EE58FF4FA2
:100440008F4F0C94A90A809180008F7703C0809110
:1004500080008F7D80938000089580918000877F49
:10046000F9CF84B58F7702C084B58F7D84BD0895A0
:100470008091B0008F7703C08091B0008F7D809312
:10048000B0000895809190008F7707C08091900010
:100490008F7D03C080919000877F809390000895A6
:1004A0008091A0008F7707C08091A0008F7D03C04E
:1004B0008091A000877F8093A00008958091200103
:1004C0008F7707C0809120018F7D03C0809120012C
:1004D000877F809320010895CF93DF93282F30E00A
:1004E000F901EA5AFD4F8491F901E05FFD4FD49183
:1004F000F901E653FE4FC491CC2391F081110E9483
:100500001602EC2FF0E0EE0FFF1FE055FE4FA59115
:10051000B491EC91ED2381E090E021F480E002C001
:1005200080E090E0DF91CF9108951F93CF93DF9308
:10053000282F30E0F901EA5AFD4F8491F901E05F7C
:10054000FD4FD491F901E653FE4FC491CC23C1F085
:10055000162F81110E941602EC2FF0E0EE0FFF1F04
:10056000EA56FE4FA591B4919FB7F894111104C0BB
:100570008C91D095D82302C0EC91DE2BDC939FBFE9
:10058000DF91CF911F910895AF92BF92CF92DF92EA
:10059000EF92FF920F931F93CF93DF938C015C0137
:1005A0008EE0A80EB11CC42ED12CC0E0D0E0E62E07
:1005B000F12CCC15DD0579F0B7010C2E02C0759534
:1005C00067950A94E2F76170F50181915F010E94DD
:1005D00095022196EECF61E0F80185850E94950293
:1005E00060E0F8018585DF91CF911F910F91FF9019
:1005F000EF90DF90CF90BF90AF900C949502CF9387
:10060000DF9390E0FC01E05FFD4F2491FC01E65395
:10061000FE4F8491882361F190E0880F991FFC01BF
:10062000E458FE4FC591D491FC01EA56FE4FA591C6
:10063000B491611109C09FB7F894888120958223F5
:100640008883EC912E230BC0623061F49FB7F8943D
:100650008881322F309583238883EC912E2B2C9325
:100660009FBF06C08FB7F894E8812E2B28838FBFD9
:10067000DF91CF9108953FB7F894809195029091C2
:100680009602A0919702B091980226B5A89B05C04A
:100690002F3F19F00196A11DB11D3FBFBA2FA92F01
:1006A000982F8827820F911DA11DB11DBC01CD017E
:1006B00042E0660F771F881F991F4A95D1F708956A
:1006C000862F642F0C94FF02862F642F0C949502C2
:1006D000862F0C946C02CF92DF92EF92FF920F93D1
:1006E0001F93CF93DF936C017A018B01C0E0D0E0C0
:1006F000CE15DF0581F0D8016D918D01D601ED9108
:10070000FC910190F081E02DC6011995892B11F023
:100710002196EECF7E01C701DF91CF911F910F91FE
:10072000FF90EF90DF90CF900895FC0186898F3F76
:1007300079F021853285662319F0232B31F403C02B
:100740002130310511F461E001C060E00C949502A4
:100750000895EF92FF921F93CF93DF93EC01162F32
:100760007A0161E0812F0E94FF021E8BFA86E986E2
:10077000E881F9810484F585E02D60E0CE01DF9108
:10078000CF911F91FF90EF9019940F931F93CF93E8
:10079000DF93EC01162F042F61E0413009F060E097
:1007A0008B850E9495028C858F3F19F060E00E9436
:1007B0009502023081F08C8184FF02C048E00CC0B9
:1007C000612F70E084E0759567958A95E1F744E0C4
:1007D000CE010E94C40244E0612FCE01DF91CF918F
:1007E0001F910F910C94C402DC01ED91FC910684E1
:1007F000F785E02D41E0199581E090E00895DC0156
:10080000ED91FC910684F785E02D40E019940F935B
:100810001F93CF93DF93CDB7DEB728970FB6F89429
:10082000DEBF0FBECDBF0091190210911A022091B8
:100830001B0230911C020D831E832F833887009189
:100840001D0210911E0220911F0230912002098387
:100850001A832B833C8390911303691710F06FEF79
:10086000690F40911403262F30E0FE01E20FF31FC1
:10087000403121F4943011F4618101C06581680F29
:1008800060688CE093E028960FB6F894DEBF0FBE48
:10089000CDBFDF91CF911F910F910C94FF038F92E9
:1008A0009F92AF92BF92CF92DF92EF92FF920F93FF
:1008B0001F93CF93DF93EC01423018F08C81886056
:1008C0008C834F836887222329F0413019F48C816F
:1008D00084608C830E943B036B017C0184E6882E3C
:1008E000912CA12CB12C0E943B03DC01CB018C1973
:1008F0009D09AE09BF09883E9340A105B10598F353
:1009000021E0821A9108A108B10888EEC80E83E0A0
:10091000D81EE11CF11C81149104A104B10419F743
:100920006C8164FD31C0E881F9810684F785E02D92
:1009300042E063E0CE0119958BE496E40197F1F76C
:10094000E881F9810684F785E02D42E063E0CE017D
:10095000199503E512E0C8010197F1F7E881F981E3
:100960000684F785E02D42E063E0CE011995C801C9
:100970000197F1F7E881F9810684F785E02D42E0DF
:1009800062E0CE01199517C06062CE010E94FF039C
:100990008BE496E40197F1F76C816062CE010E94CE
:1009A000FF0303E512E0C8010197F1F76C81606273
:1009B000CE010E94FF03C8010197F1F76C816062CC
:1009C000CE010E94FF038BEE90E00197F1F784E0E7
:1009D0008D836CE0CE010E94FF0361E0CE010E9496
:1009E000FF038BE39FE10197F1F782E08E8366E0DE
:1009F000CE010E94FF03E881F9810484F585E02D92
:100A00006FEFCE01DF91CF911F910F91FF90EF908B
:100A1000DF90CF90BF90AF909F908F9019940895E2
:100A20000895089580E090E00895009769F0FC0132
:100A300001900020E9F73197AF01481B590BBC0129
:100A40008CE093E00C946B0380E090E008958F922B
:100A50009F92AF92BF920F931F93CF93DF93CDB727
:100A6000DEB7A1970FB6F894DEBF0FBECDBF19A2B7
:100A7000423008F44AE08E010F5D1F4F842E912C06
:100A8000A12CB12CA50194010E94870AE62FB9017F
:100A9000CA0101501109EA3014F4E05D01C0E95CBB
:100AA000D801EC93232B242B252B61F7C8010E943E
:100AB0001505A1960FB6F894DEBF0FBECDBFDF912E
:100AC000CF911F910F91BF90AF909F908F900895FD
:100AD000CF92DF92EF92FF92CF93DF936C01990F49
:100AE000EE08FF08F7FE19C06DE28CE093E00E946B
:100AF000F403EC0166277727CB016C197D098E0979
:100B00009F094AE00E9427058C0F9D1FDF91CF911E
:100B1000FF90EF90DF90CF9008954AE0C701B601B3
:100B2000DF91CF91FF90EF90DF90CF900C9427054D
:100B30000E94B70C1F920F920FB60F9211242F93A1
:100B40003F938F939F93AF93BF938091990290911E
:100B50009A02A0919B02B0919C023091940223E0F2
:100B6000230F2D3720F40196A11DB11D05C026E8E5
:100B7000230F0296A11DB11D209394028093990228
:100B800090939A02A0939B02B0939C02809195024D
:100B900090919602A0919702B09198020196A11DA2
:100BA000B11D8093950290939602A0939702B09303
:100BB0009802BF91AF919F918F913F912F910F908C
:100BC0000FBE0F901F9018951F920F920FB60F92A5
:100BD00011240BB60F922F933F934F935F936F9314
:100BE0007F938F939F93AF93BF93CF93DF93EF93B5
:100BF000FF938091880290918902019690938902D7
:100C00008093880280918E0290918F024AE0489FE3
:100C10009001499F300D1124809190029091910292
:100C2000820F931F40918C0250918D026CE3649F60
:100C30009001659F300D1124820F931F40918A020D
:100C400050918B02C8E5D2E04C9F90014D9F300D32
:100C50005C9F300D1124820F931F90938702809325
:100C600086022091880230918902880F991F61E0E5
:100C70002817390708F064C080E00E94070420911B
:100C8000880230918902369527958091860290914D
:100C90008702821B930BBE010E94730A80E090E0E2
:100CA0004AE00E94270561E081E00E94070420914C
:100CB000880230918902369527958091860290911D
:100CC0008702821B930B6CE370E00E94730A80E042
:100CD00090E04AE00E94270561E083E00E9407045B
:100CE000209188023091890236952795809186025D
:100CF00090918702821B930BCAE0D0E0BE010E9454
:100D0000730A80E090E04AE00E94270561E084E0F9
:100D10000E94070420918802309189023695279518
:100D20008091860290918702821B930BBE010E94E4
:100D3000730ABC0180E090E04AE00E9427051BC0D6
:100D400084E00E94070480E090E00E94680582E051
:100D50000E946C0261E0682782E00E94950260E0D8
:100D600083E00E94950260E080E00E94070484E72F
:100D700092E00E941505FF91EF91DF91CF91BF9115
:100D8000AF919F918F917F916F915F914F913F9123
:100D90002F910F900BBE0F900FBE0F901F901895C4
:100DA000CF93DF9300D01F92CDB7DEB7789484B590
:100DB000826084BD84B5816084BD85B5826085BD57
:100DC00085B5816085BD80916E00816080936E00E5
:100DD00010928100809181008260809381008091D7
:100DE0008100816080938100809180008160809388
:100DF00080008091B10084608093B1008091B00048
:100E000081608093B0008091910082608093910016
:100E10008091910081608093910080919000816029
:100E2000809390008091A10082608093A1008091C6
:100E3000A10081608093A1008091A00081608093D7
:100E4000A000809121018260809321018091210185
:100E50008160809321018091200181608093200135
:100E600080917A00846080937A0080917A00826019
:100E700080937A0080917A00816080937A008091DB
:100E80007A00806880937A001092C10020E042E0EE
:100E900060E18CE093E00E944F0460E080E00E94FB
:100EA00007048FE392E00E94150561E080E00E9454
:100EB000070480E090E00E94680561E081E00E9404
:100EC000070480E090E00E94680561E082E00E94F3
:100ED000070480E592E00E94150561E083E00E942E
:100EE000070480E090E00E94680561E084E00E94D1
:100EF000070480E090E00E94680510928000109244
:100F00008100809181008560809381008BE791EE64
:100F1000909385008093840061E083E00E94FF024B
:100F200061E082E00E94FF02812C912C54018394A5
:100F300059ED652E52E0752E9E012F5F3F4F6901DE
:100F400031E0309309038FB7F894409199025091A2
:100F50009A0260919B0270919C028FBF8091F9026E
:100F60009091FA02A091FB02B091FC02481B590B30
:100F70006A0B7B0B8091050390910603A0E0B0E023
:100F800084179507A607B70708F0EBC010E080911B
:100F90000303181710F0312C44C0E091FF02F091C8
:100FA0000003E10FF11D62E080810E94FF021F5FDC
:100FB000EECF022D10E0E091FF02F0910003E00F70
:100FC000F11F80810E946C020C5F1F4F000F111FE8
:100FD000F801E356FD4F892B09F04EC080819181C5
:100FE0002B813C81822B932B91838083239480914E
:100FF00003032816F0F2E0910103F0910203EE0DD5
:10100000FF1D61E080810E94950280910103909113
:101010000203FC01EE0DFF1D60E080810E94FF02D3
:10102000339480910403381660F5E32CF12CE091A1
:101030000103F0910203EE0DFF1D61E080810E942B
:10104000FF02E0910103F0910203EE0DFF1D60E04D
:1010500080810E949502D501C401032C04C0880F31
:10106000991FAA1FBB1F0A94D2F79C838B832C0164
:1010700040945094212CBBCF808191818421952173
:10108000B3CF0DE912E0F801878D90A1892B31F4DF
:10109000148E8FEF9FEF968F858F11A236966E1666
:1010A0007F0691F7F12C80910303F81670F5E12C7F
:1010B0004F2C512CC201880F991FFC01EB55FD4F9D
:1010C0002F0120910403E216F0F4F20140815181D6
:1010D0000E2C02C0569547950A94E2F7642F617072
:1010E000F29E900111242E0D311DEDE9F2E080E019
:1010F000A58DB68D2A173B0709F403C18F5F36967D
:101100008A30B1F7E1C0F394CECF80E0F80191A12D
:10111000911181E00A5F1F4F60167106B9F79FB702
:10112000F8944091990250919A0260919B027091BB
:101130009C029FBF4093F9025093FA026093FB0216
:101140007093FC02882369F08091BE02882349F0E5
:101150008091BC029091BD02019719F48091B9026F
:1011600003C01092090380E08093930289831A825E
:10117000F60101900020E9F7BF016C197D0980E0BC
:1011800090E00E94D20B8C01009729F0FC011082A4
:10119000B6010E94C50C0115110531F0C8010E946D
:1011A000370A1B012C0103C0212C312C2101C8015D
:1011B0000E94490B809193028823C9F18A32B9F1C8
:1011C0008332A9F180919202E82FF0E0EE0FFF1F29
:1011D000E657FD4F318220828F5F8093920261E05B
:1011E00080E00E94070480918A0290918B020E9405
:1011F000680561E081E00E94070480918C02909173
:101200008D020E94680561E083E00E9407048091DE
:101210008E0290918F020E94680561E084E00E9436
:10122000070480919002909191020E94680580913C
:1012300093028A3289F460E080E00E94070482E52C
:1012400092E00E94150561E083E00E949502809182
:101250006F00816080936F0080919302833261F50B
:1012600060E083E00E94950260E080E00E94070455
:1012700083E692E00E94150561E080E00E94070489
:1012800080E090E00E94680561E081E00E94070430
:1012900080E090E00E94680561E083E00E9407041E
:1012A00080E090E00E94680561E084E00E9407040D
:1012B00080E090E00E94680520E030E0232B09F4F4
:1012C0003FCE0E9400003CCE40FF1DC0EDE9F2E0A1
:1012D00080E090E0448D411118C0E091FD02F09152
:1012E000FE02E20FF31F408156E0589FF001599F24
:1012F000F00D1124E356FD4F448F368F258F10A239
:10130000178E0E94A501E394DCCE019636968A30B2
:10131000910501F7F8CFCF93DF9310920F0310924E
:101320000E038FE292E090930D0380930C038FE203
:10133000809317038FEF8093180381E38093190341
:101340008DE280931A038BE280931B0389E28093E2
:101350001C0387E280931D0310921E0310921F034B
:101360001092200310922103CAE1D3E061E0899139
:101370000E94FF0283E0CE31D807C1F761E080917F
:1013800017030E94FF02809118038F3F19F061E05C
:101390000E94FF0261E0809119030E94FF021092F7
:1013A000100360E0809117030E94950260E0809135
:1013B00019030E949502809118038F3F19F060E095
:1013C0000E9495028FEF80932203109216031092D1
:1013D000150310929F021092A3021092A202109283
:1013E000A40285E292E090939E0280939D02EDE933
:1013F000F2E0148E10A2178E11A2369682E0E93D1B
:10140000F807B9F783E092E0909300038093FF021E
:1014100080E092E0909302038093010384E0809344
:10142000030383E08093040387E092E09093FE023D
:101430008093FD028AE090E0909306038093050379
:1014400084EF91E0909308038093070310920B03BD
:1014500010920A031092F9021092FA021092FB0203
:101460001092FC0210920903DF91CF9108951F930F
:10147000FC0199278827BC01E89411911032E9F307
:10148000193010F01E30C8F31B3251F01D3249F4F0
:10149000689406C00E945E0A610F711D811D911D36
:1014A000119110531A30B0F33EF4909580957095D9
:1014B00061957F4F8F4F9F4F1F910895592F482F50
:1014C000372F262F660F771F881F991F660F771FEC
:1014D000881F991F620F731F841F951F660F771F48
:1014E000881F991F0895AA1BBB1B51E107C0AA1FA3
:1014F000BB1FA617B70710F0A61BB70B881F991FB5
:101500005A95A9F780959095BC01CD010895A1E267
:101510001A2EAA1BBB1BFD010DC0AA1FBB1FEE1F6D
:10152000FF1FA217B307E407F50720F0A21BB30BB8
:10153000E40BF50B661F771F881F991F1A9469F734
:1015400060957095809590959B01AC01BD01CF0190
:101550000895EE0FFF1F881F8BBF0790F691E02DB7
:1015600019940F931F93CF93DF938230910510F45A
:1015700082E090E0E0912503F091260320E030E046
:10158000A0E0B0E0309719F14081518102811381D0
:1015900048175907C8F08417950769F4109731F078
:1015A00012960C93129713961C9327C00093250351
:1015B0001093260322C02115310519F04217530755
:1015C00018F49A01BD01EF01DF01F801DBCF21150D
:1015D0003105F9F0281B390B2430310580F48A815C
:1015E0009B816115710521F0FB019383828304C007
:1015F0009093260380932503FE01329644C0FE019A
:10160000E20FF31F8193919322503109398328838C
:101610003AC02091230330912403232B41F42091DD
:101620001502309116023093240320932303209156
:101630001302309114022115310541F42DB73EB744
:101640004091170250911802241B350BE09123039F
:10165000F0912403E217F307A0F42E1B3F0B281789
:10166000390778F0AC014E5F5F4F2417350748F01B
:101670004E0F5F1F50932403409323038193919354
:1016800002C0E0E0F0E0CF01DF91CF911F910F9118
:101690000895CF93DF93009709F481C0FC0132973E
:1016A00013821282A0912503B0912603109781F432
:1016B00020813181820F931F2091230330912403D5
:1016C0002817390751F5F0932403E093230367C0EB
:1016D000ED0120E030E0CE17DF0740F44A815B8166
:1016E0009E0141155105F1F0EA01F5CFD383C28384
:1016F00040815181840F951FC817D90759F48881FB
:101700009981840F951F0296918380838A819B81A2
:10171000938382832115310529F4F0932603E09306
:1017200025033DC0E901FB83EA8349915991C40F28
:10173000D51FEC17FD0761F480819181840F951FFF
:101740000296E90199838883828193819B838A83AE
:10175000E0E0F0E012968D919C911397009719F0BC
:10176000FD01DC01F7CF8D919C9111979D012E5FBA
:101770003F4F820F931F209123033091240328179A
:10178000390769F4309729F4109226031092250343
:1017900002C013821282B0932403A0932303DF912B
:1017A000CF9108956F927F928F929F92AF92BF9246
:1017B000CF92DF92EF92FF920F931F93CF93DF931D
:1017C000009789F4CB01DF91CF911F910F91FF908A
:1017D000EF90DF90CF90BF90AF909F908F907F90D1
:1017E0006F900C94B10AFC01E60FF71F9C01225088
:1017F0003109E217F30708F4A9C0EC01D9010D91F2
:101800001C91119706171707B0F00530110508F461
:101810009BC0C80104978617970708F495C002502B
:101820001109061B170B019311936D937C93CF0144
:101830000E94490B89C05B01A01AB10A4C01800EBD
:10184000911EA0912503B0912603612C712CE12CEF
:10185000F12C109709F446C08D919C911197A81511
:10186000B905B1F56C0142E0C40ED11CCA14DB0409
:1018700078F14C018A189B08640142E0C40ED11C27
:101880001296BC9012971396AC91B5E0CB16D1048A
:1018900040F0B282A38391828082D9016D937C93C0
:1018A00009C00E5F1F4F800F911FF9019183808344
:1018B000EB2DFA2FE114F10431F0D7011396FC93CC
:1018C000EE93129741C0F0932603E09325033CC0AA
:1018D0006816790608F43C017D0112960D90BC91C2
:1018E000A02DB7CF809123039091240388169906E9
:1018F000E1F466167706C8F4809113029091140201
:10190000009741F48DB79EB740911702509118028D
:10191000841B950BE817F907C8F4F0932403E093B0
:101920002303F901718360830FC0CB010E94B10AC8
:101930007C01009759F0A801BE010E94BC0CCE01A9
:101940000E94490BC70104C0CE0102C080E090E0B4
:10195000DF91CF911F910F91FF90EF90DF90CF908B
:10196000BF90AF909F908F907F906F90089581E08F
:1019700090E0F8940C94CC0CFB01DC0102C00190C7
:101980000D9241505040D8F70895FB01DC010190C1
:0C1990000D920020E1F70895F894FFCFBD
:10199C0011100F12131415313233343536373839E0
:1019AC002A3023000027032000004014540040106C
:1019BC00500000000060036403680300000000F4A2
:1019CC00036B03120511054F04A9039503C50348C6
:1019DC006F726E6F206D6963726F6F6E64617300EE
:1019EC003A00436F63696E616E646F2E2E2E202059
:1019FC0020200043616E63656C61646F20202020A1
:101A0C0020202000526574697265206C6120636F20
:061A1C006D696461000029
:00000001FF
